:100000000C942A000C9447000C9447000C94470071
:100010000C9447000C9447000C9447000C94470044
:100020000C9447000C9447000C9408010C94470072
:100030000C9447000C9447000C9447000C94470024
:100040000C9447000C9447000C9447000C94470014
:100050000C94470011241FBECFE5D8E0DEBFCDBF12
:1000600010E0A0E6B0E0E8EFFFE102C005900D92DD
:10007000A437B107D9F711E0A4E7B0E001C01D92A1
:10008000AD37B107E1F70E94DE0B0C94FA0F0C9428
:100090000000CF93DF9300D00F92CDB7DEB78983F6
:1000A0006A834B838B81882379F08A81282F30E003
:1000B00081E090E0022E02C0880F991F0A94E2F7B7
:1000C000982F8981892B0FC08A81282F30E081E009
:1000D00090E0022E02C0880F991F0A94E2F7982F31
:1000E0009095898189230F900F900F90DF91CF9188
:1000F0000895CF93DF9300D0CDB7DEB789836A83AD
:100100008A81282F30E081E090E0022E02C0880F23
:10011000991F0A94E2F7982F898189230F900F90F5
:10012000DF91CF910895CF93DF9300D000D0CDB76A
:10013000DEB769837A838B839C8389819A81AB81C3
:10014000BC818093600090936100A0936200B093A3
:1001500063008091600090916100A0916200B09175
:1001600063008093750090937600A0937700B0931E
:1001700078000F900F900F900F90DF91CF9108951E
:10018000CF93DF93CDB7DEB783E590E02BE0FC01A2
:1001900020838CE590E02DE7FC01208389E590E049
:1001A00022E0FC01208382E590E0FC011082809136
:1001B000600090916100A0916200B0916300809313
:1001C000750090937600A0937700B09378008FE548
:1001D00090E02FE530E0F90120812068FC012083C8
:1001E000DF91CF910895CF93DF93CDB7DEB783E54D
:1001F00090E0FC011082DF91CF910895CF93DF93BF
:10020000CDB7DEB781E080937400DF91CF91089580
:100210001F920F920FB60F9211242F933F934F937B
:100220005F936F937F938F939F93AF93BF93EF935E
:10023000FF93CF93DF93CDB7DEB780917500909198
:100240007600A0917700B09178000197A109B109DB
:100250008093750090937600A0937700B093780018
:100260008091750090917600A0917700B091780010
:100270000097A105B10591F40E94FE0080916000F5
:1002800090916100A0916200B0916300809375002D
:1002900090937600A0937700B0937800DF91CF9190
:1002A000FF91EF91BF91AF919F918F917F916F914E
:1002B0005F914F913F912F910F900FBE0F901F9024
:1002C0001895CF93DF93CDB7DEB785E490E02DE1AD
:1002D000FC012083DF91CF9108950F931F93CF935B
:1002E000DF9300D000D0CDB7DEB769837A838B83EC
:1002F0009C8311E069817A818B819C8120E030E0D0
:1003000040E85FE30E94630E88230CF010E01123A5
:1003100029F083E490E0FC01108221C003E410E0A6
:1003200069817A818B819C8120E030E040E853E450
:100330000E94750FDC01CB019C01AD0160E074E20D
:1003400084EF9AE40E94670EDC01CB01BC01CD0171
:100350000E94CF0EDC01CB018150F80180830F9009
:100360000F900F900F90DF91CF911F910F910895F3
:10037000CF93DF9300D000D000D0CDB7DEB78E830F
:1003800010923C018E81813009F0B3C019821DC0EA
:100390001A8215C08A81282F30E08981882F90E049
:1003A000220F331F220F331F220F331F820F931F81
:1003B00086559F4FFC0110828A818F5F8A838A81D4
:1003C000883040F389818F5F89838981883000F389
:1003D0001B828BC08091790090917A00A0917B0064
:1003E000B0917C0087708C8380916600909167004B
:1003F000A0916800B091690087708D8326C08091BC
:10040000790090917A00A0917B00B0917C000196D8
:10041000A11DB11D8093790090937A00A0937B0079
:10042000B0937C008091660090916700A091680075
:10043000B0916900C396A11DB11D80936600909391
:100440006700A0936800B09369008C81282F30E08A
:100450008D81882F90E0220F331F220F331F220F30
:10046000331F820F931F86559F4FFC01808181307F
:1004700031F28C81282F30E08D81882F90E0220F7F
:10048000331F220F331F220F331F820F931F8655F6
:100490009F4F21E0FC0120838091660090916700CE
:1004A000A0916800B09169000196A11DB11D8093D3
:1004B000660090936700A0936800B09369008091F4
:1004C000790090917A00A0917B00B0917C000D970B
:1004D000A109B1098093790090937A00A0937B00E1
:1004E000B0937C008B818F5F8B838B81883008F485
:1004F00071CF19821DC01A8215C08A81282F30E061
:100500008981882F90E0220F331F220F331F220F83
:10051000331F820F931F89509F4FFC0110828A81E5
:100520008F5F8A838A81883040F389818F5F8983D6
:100530008981883000F323EC32E08EEF9FEFF901E0
:1005400009952CE033E08FEF90E0F90109952CE557
:1005500033E080E090E0F901099581E08093640048
:1005600081E08093650010923B011092A90081E028
:100570008093F70026960FB6F894DEBF0FBECDBF6E
:10058000DF91CF910895CF93DF9300D00F92CDB735
:10059000DEB78B831A82198227C085E390E028E0BA
:1005A000FC01208385E390E025E330E0F901208120
:1005B000422F2B81222F30E0098002C035952795EC
:1005C0000A94E2F72170242BFC01208385E390E05C
:1005D00025E330E0F90120812260FC01208389813C
:1005E0009A8101969A83898389819A8188309105BD
:1005F000A4F285E390E025E330E0F9012081246056
:10060000FC01208385E390E0FC0110820F900F90A5
:100610000F90DF91CF910895CF93DF9300D00F9289
:10062000CDB7DEB78B831A8219822EC085E390E0A6
:1006300020E8FC01208385E390E025E330E0F90128
:100640002081422F2B81222F30E0098002C0359576
:1006500027950A94E2F72170307022953295307F09
:100660003227207F3227242BFC01208385E390E072
:1006700025E330E0F90120812062FC01208389819B
:100680009A8101969A83898389819A81883091051C
:100690006CF285E390E025E330E0F90120812064ED
:1006A000FC01208385E390E0FC0110820F900F9005
:1006B0000F90DF91CF910895CF93DF9300D00F92E9
:1006C000CDB7DEB78B831A82198227C082E390E010
:1006D00028E0FC01208382E390E022E330E0F9018E
:1006E0002081422F2B81222F30E0098002C03595D6
:1006F00027950A94E2F72170242BFC01208382E3E2
:1007000090E022E330E0F90120812260FC012083A7
:1007100089819A8101969A83898389819A81883017
:100720009105A4F282E390E022E330E0F901208118
:100730002460FC01208382E390E022E330E0F901B1
:100740002081207FFC0120830F900F900F90DF917C
:10075000CF910895CF93DF9300D00F92CDB7DEB73E
:100760008B831A8219822EC082E390E020E8FC017C
:10077000208382E390E022E330E0F9012081422FE0
:100780002B81222F30E0098002C0359527950A94ED
:10079000E2F72170307022953295307F3227207F2A
:1007A0003227242BFC01208382E390E022E330E017
:1007B000F90120812062FC01208389819A810196C0
:1007C0009A83898389819A81883091056CF282E3CA
:1007D00090E022E330E0F90120812064FC012083D5
:1007E00082E390E022E330E0F90120812F70FC01E8
:1007F00020830F900F900F90DF91CF910895CF93AA
:10080000DF9300D00F92CDB7DEB780913B018A8392
:100810008091A9008B8319828A81882F90E00197AB
:1008200018161906D4F48A81882F90E09C01215073
:1008300030408B81882F90E0220F331F220F331F0F
:10084000220F331F820F931F86559F4FFC0180811B
:10085000813019F489818F5F89838A81882F90E0A4
:1008600001971816190614F58B81882F90E00196D0
:1008700087309105DCF48A81882F90E09C0121501B
:1008800030408B81882F90E00196220F331F220F7A
:10089000331F220F331F820F931F86559F4FFC017A
:1008A0008081813019F489818F5F89838B81882FC2
:1008B00090E0019687309105C4F48A81282F30E0BA
:1008C0008B81882F90E00196220F331F220F331F58
:1008D000220F331F820F931F86559F4FFC0180818B
:1008E000813019F489818F5F89838A81882F90E014
:1008F00001968730910514F58B81882F90E0019641
:1009000087309105DCF48A81882F90E09C012F5F6D
:100910003F4F8B81882F90E00196220F331F220FCB
:10092000331F220F331F820F931F86559F4FFC01E9
:100930008081813019F489818F5F89838A81882F32
:1009400090E0019687309105D4F48A81882F90E059
:100950009C012F5F3F4F8B81882F90E0220F331F28
:10096000220F331F220F331F820F931F86559F4F75
:10097000FC018081813019F489818F5F89838A81AC
:10098000882F90E001968730910514F58B81882F90
:1009900090E0019718161906DCF48A81882F90E000
:1009A0009C012F5F3F4F8B81882F90E00197220F92
:1009B000331F220F331F220F331F820F931F8655C1
:1009C0009F4FFC018081813019F489818F5F898379
:1009D0008B81882F90E0019718161906C4F48A813C
:1009E000282F30E08B81882F90E00197220F331F52
:1009F000220F331F220F331F820F931F86559F4FE5
:100A0000FC018081813019F489818F5F89838A811B
:100A1000882F90E001971816190614F58B81882FFE
:100A200090E0019718161906DCF48A81882F90E06F
:100A30009C01215030408B81882F90E00197220F3C
:100A4000331F220F331F220F331F820F931F865530
:100A50009F4FFC018081813019F489818F5F8983E8
:100A60008981882321F487EE0E945C0337C0898145
:100A7000813021F484E80E945C0330C08981823097
:100A800021F483ED0E945C0329C08981833021F425
:100A900086ED0E945C0322C08981843021F484EBBE
:100AA0000E945C031BC08981853021F486E70E9487
:100AB0005C0314C08981863021F487E70E945C03BF
:100AC0000DC08981873021F484EC0E945C0306C04C
:100AD0008981883019F487EF0E945C030F900F9092
:100AE0000F90DF91CF910895CF93DF9300D0CDB7D2
:100AF000DEB78FEF0E94C30219821A829091A9007B
:100B00008981692F41E00E944900898390913B01CE
:100B10008A81692F41E00E9449008A838BE390E03B
:100B20002FEEFC012083000009C088E390E02A81B9
:100B3000FC012083898180950E940C0389E390E069
:100B4000FC01808161E00E947900882371F780E0D8
:100B50000E94B8010F900F90DF91CF910895CF932D
:100B6000DF9300D0CDB7DEB719821DC01A8215C041
:100B70008A81282F30E08981882F90E0220F331F4F
:100B8000220F331F220F331F820F931F89509F4F55
:100B9000FC0110828A818F5F8A838A81883040F3CA
:100BA00089818F5F89838981883000F381E0809318
:100BB000110181E08093120181E08093210181E0A5
:100BC0008093220181E080930C0181E080932C01CD
:100BD00081E08093150181E080931D0181E0809385
:100BE00025018BE390E02FEEFC012083000004C080
:100BF0008DE096E0FC01099589E390E0FC0180819D
:100C000061E00E947900882399F780E00E94B80192
:100C10000F900F90DF91CF9108950F931F93CF9373
:100C2000DF93CDB7DEB72B970FB6F894DEBF0FBEBC
:100C3000CDBF1A8251C0198248C08A81282F30E066
:100C40008981882F90E0220F331F220F331F220F3C
:100C5000331F820F931F89509F4FFC01808188238F
:100C6000C9F08A81082F10E08A81882F90E09E01C8
:100C70002C5F3F4F820F931FFC018081698141E00F
:100C80000E944900282FCE010496800F911FFC017D
:100C9000208318C08A81082F10E08A81882F90E075
:100CA0009E012C5F3F4F820F931FFC018081698161
:100CB00040E00E944900282FCE010496800F911F2A
:100CC000FC01208389818F5F89838981883008F4C2
:100CD000B4CF8A818F5F8A838A81883008F4ABCF52
:100CE00081E08B831A8224C088E390E0FC011082AB
:100CF0008A81882F90E09E012C5F3F4F820F931FC7
:100D0000FC01808180950E94C30288E390E02B81E2
:100D1000222F30E04A81442F50E0042E02C0220FDF
:100D2000331F0A94E2F7FC0120838A818F5F8A8354
:100D30008A818830C8F288E390E0FC0110822B960B
:100D40000FB6F894DEBF0FBECDBFDF91CF911F91DC
:100D50000F910895CF93DF93CDB7DEB72C970FB6E1
:100D6000F894DEBF0FBECDBF6D837E838F839887DF
:100D700029873A874B875C878D819E81AF81B885B3
:100D800029853A854B855C85BC01CD010E94D80F31
:100D9000DC01CB0189839A83AB83BC8389819A81EF
:100DA000AB81BC810097A105B10579F489859A854D
:100DB000AB85BC85BC01CD012C960FB6F894DEBF87
:100DC0000FBECDBFDF91CF91089589859A85AB8500
:100DD000BC858D839E83AF83B88789819A81AB81DF
:100DE000BC8189879A87AB87BC87C6CFCF93DF93B7
:100DF000CDB7DEB78BE390E02FEEFC01208300003F
:100E000089E390E0FC01808160E00E947900882302
:100E100011F481E365C089E390E0FC01808161E029
:100E20000E947900882311F484E35AC089E390E09A
:100E3000FC01808162E00E947900882311F487E33D
:100E40004FC08BE390E02FEDFC012083000089E38D
:100E500090E0FC01808160E00E947900882311F419
:100E600082E33EC089E390E0FC01808161E00E9462
:100E70007900882311F485E333C089E390E0FC0115
:100E8000808162E00E947900882311F488E328C001
:100E90008BE390E02FEBFC012083000089E390E0DE
:100EA000FC01808160E00E947900882311F483E3D3
:100EB00017C089E390E0FC01808161E00E94790025
:100EC000882311F486E30CC089E390E0FC01808163
:100ED00062E00E947900882311F489E301C080E078
:100EE000DF91CF910895CF93DF9300D0CDB7DEB7D8
:100EF0009A83898389819A819093380180933701FD
:100F00008091370190913801009749F02FEF8F3F82
:100F1000920751F4109238011092370105C01092D7
:100F2000380110923701000080913701909138010B
:100F3000009729F40E94F6068093F6000000809145
:100F40003701909138010F900F90DF91CF91089564
:100F5000CF93DF9300D0CDB7DEB79A8389838981A1
:100F60009A819093F5008093F4008091F400909121
:100F7000F5008130910509F42CC38130910548F0CA
:100F80002FEF8F3F920709F038C31092F5001092AF
:100F9000F4008091F600882329F41092F500109255
:100FA000F40017C38091F600882309F412C381E08E
:100FB00090E09093F5008093F4008091F600882FE4
:100FC00090E08533910509F45EC1863391056CF498
:100FD0008233910509F4B6C08433910509F4EBC25C
:100FE0008133910509F4E3C2F3C28733910509F413
:100FF0008CC2873391052CF08833910509F4E4C144
:10100000E7C28091640060E00E947900882309F0C3
:10101000D6C280913B01282F30E08091A900882F13
:1010200090E0220F331F220F331F220F331F820F36
:10103000931F89509F4FFC018081823009F44BC07F
:1010400080913B01282F30E08091A900882F90E00B
:10105000220F331F220F331F220F331F820F931FC4
:1010600089509F4FFC011082809164008695809387
:1010700064008091A90081508093A90080913B0178
:10108000282F30E08091A900882F90E0220F331F95
:10109000220F331F220F331F820F931F89509F4F40
:1010A000FC018081823009F48AC280913B01282FA3
:1010B00030E08091A900882F90E0220F331F220F8B
:1010C000331F220F331F820F931F89509F4F21E040
:1010D000FC01208374C28091640086958093640033
:1010E0008091A90081508093A90080913B01282F15
:1010F00030E08091A900882F90E0220F331F220F4B
:10110000331F220F331F820F931F89509F4FFC0103
:101110008081823009F453C280913B01282F30E056
:101120008091A900882F90E0220F331F220F331FD8
:10113000220F331F820F931F89509F4F21E0FC0124
:1011400020833DC28091650060E00E947900882381
:1011500009F037C280913B01282F30E08091A9002F
:10116000882F90E0220F331F220F331F220F331FCF
:10117000820F931F89509F4FFC018081823009F4B8
:101180004BC080913B01282F30E08091A900882F2F
:1011900090E0220F331F220F331F220F331F820FC5
:1011A000931F89509F4FFC011082809165008695A6
:1011B0008093650080913B01815080933B01809139
:1011C0003B01282F30E08091A900882F90E0220F6A
:1011D000331F220F331F220F331F820F931F89509B
:1011E0009F4FFC018081823009F4EBC180913B016B
:1011F000282F30E08091A900882F90E0220F331F24
:10120000220F331F220F331F820F931F89509F4FCE
:1012100021E0FC012083D5C18091650086958093F3
:10122000650080913B01815080933B0180913B019F
:10123000282F30E08091A900882F90E0220F331FE3
:10124000220F331F220F331F820F931F89509F4F8E
:10125000FC018081823009F4B4C180913B01282FC8
:1012600030E08091A900882F90E0220F331F220FD9
:10127000331F220F331F820F931F89509F4F21E08E
:10128000FC0120839EC18091640067E00E94790088
:10129000882309F098C180913B01282F30E080918C
:1012A000A900882F90E0220F331F220F331F220F37
:1012B000331F820F931F89509F4FFC018081823022
:1012C00009F44BC080913B01282F30E08091A900A8
:1012D000882F90E0220F331F220F331F220F331F5E
:1012E000820F931F89509F4FFC01108280916400F0
:1012F000880F809364008091A9008F5F8093A9007C
:1013000080913B01282F30E08091A900882F90E048
:10131000220F331F220F331F220F331F820F931F01
:1013200089509F4FFC018081823009F44CC180912B
:101330003B01282F30E08091A900882F90E0220FF8
:10134000331F220F331F220F331F820F931F895029
:101350009F4F21E0FC01208336C180916400880FFB
:10136000809364008091A9008F5F8093A900809191
:101370003B01282F30E08091A900882F90E0220FB8
:10138000331F220F331F220F331F820F931F8950E9
:101390009F4FFC018081823009F415C180913B018F
:1013A000282F30E08091A900882F90E0220F331F72
:1013B000220F331F220F331F820F931F89509F4F1D
:1013C00021E0FC012083FFC08091650067E00E945E
:1013D0007900882309F0F9C080913B01282F30E083
:1013E0008091A900882F90E0220F331F220F331F16
:1013F000220F331F820F931F89509F4FFC01808162
:10140000823009F44BC080913B01282F30E080915D
:10141000A900882F90E0220F331F220F331F220FC5
:10142000331F820F931F89509F4FFC0110828091C0
:101430006500880F8093650080913B018F5F8093EA
:101440003B0180913B01282F30E08091A900882F3B
:1014500090E0220F331F220F331F220F331F820F02
:10146000931F89509F4FFC018081823009F4ADC0E9
:1014700080913B01282F30E08091A900882F90E0D7
:10148000220F331F220F331F220F331F820F931F90
:1014900089509F4F21E0FC01208397C08091650017
:1014A000880F8093650080913B018F5F80933B01A3
:1014B00080913B01282F30E08091A900882F90E097
:1014C000220F331F220F331F220F331F820F931F50
:1014D00089509F4FFC018081823009F476C0809151
:1014E0003B01282F30E08091A900882F90E0220F47
:1014F000331F220F331F220F331F820F931F895078
:101500009F4F21E0FC01208360C080913B01282F88
:1015100030E08091A900882F90E0220F331F220F26
:10152000331F220F331F820F931F86559F4FFC01DD
:101530008081813019F40E94740532C080913B0192
:10154000282F30E08091A900882F90E0220F331FD0
:10155000220F331F220F331F820F931F89509F4F7B
:10156000FC0180818230E1F080913B01282F30E046
:101570008091A900882F90E0220F331F220F331F84
:10158000220F331F820F931F89509F4F22E0FC01CF
:10159000208380913C018F5F80933C010E94FF0378
:1015A00080913C01883399F40E94AF0510C080E01F
:1015B0000E94B8010DC081E00E94B80109C000007E
:1015C00007C0000005C0000003C0000001C000000B
:1015D00014C08091F600882329F41092F50010922F
:1015E000F4000AC08091F600882331F081E090E099
:1015F0009093F5008093F40000008091F4009091A6
:10160000F5000F900F90DF91CF910895CF93DF9366
:1016100000D0CDB7DEB79A83898389819A81909370
:101620003A01809339018091390190913A010097F4
:1016300099F02FEF8F3F9207A1F480E00E94B8014C
:1016400010923B011092A90081E08093F700109264
:101650003A011092390105C010923A0110923901F5
:1016600000008091390190913A01009719F40E948D
:101670000D0600008091390190913A010F900F9072
:10168000DF91CF910895CF93DF9300D0CDB7DEB730
:101690009A83898389819A819093EB008093EA00F1
:1016A00089819A8181309105B1F0823091052CF4C5
:1016B0002FEF8F3F920741F03DC082309105B1F08E
:1016C0008330910529F136C081E090E09093EB00E2
:1016D0008093EA0039C080916A00882381F182E01A
:1016E00090E09093EB008093EA0029C080916A001B
:1016F000882329F083E090E09A83898322C0809137
:101700006A008823F1F481E090E09A83898319C00C
:1017100080916A00882329F084E090E09A8389838D
:1017200012C080916A00882371F481E090E09A836E
:10173000898309C081E090E09A83898305C0000015
:1017400003C0000001C000008091EA009091EB000E
:1017500082309105A1F08330910520F4813091050C
:1017600041F022C08330910589F084309105A9F0C1
:101770001BC060E070E0CB010E946D0116C064EAFE
:1017800070ED82E893E40E946D010FC06BE774ED89
:1017900082E993E40E946D0108C064EA70ED84EA76
:1017A00093E40E946D0101C000008091EA009091D5
:1017B000EB000F900F90DF91CF9108950F931F933F
:1017C000CF93DF93CDB7DEB7E4970FB6F894DEBFC3
:1017D0000FBECDBF8AE390E020EFFC0120838BE3B6
:1017E00090E02FE0FC01208387E390E02FEFFC01E5
:1017F000208388E390E0FC01108284E390E02FEFE7
:10180000FC01208385E390E0FC01108281E390E0FD
:101810002FEFFC01208382E390E0FC01108285E041
:1018200090E0A0E0B0E08B839C83AD83BE8384E630
:1018300090E0A0E0B0E08F839887A987BA8785E021
:1018400090E0A0E0B0E08B879C87AD87BE8788EEF4
:1018500093E0A0E0B0E08F87988BA98BBA8B81E0F2
:1018600090E0A0E0B0E08B8B9C8BAD8BBE8B8B812E
:101870009C81AD81BE812F81388549855A85BC0107
:10188000CD010E94AA06DC01CB018B8B9C8BAD8B1A
:10189000BE8B8B899C89AD89BE892B853C854D8506
:1018A0005E85BC01CD010E94AA06DC01CB018B8BB9
:1018B0009C8BAD8BBE8B8B899C89AD89BE892F8516
:1018C000388949895A89BC01CD010E94AA06DC01E8
:1018D000CB018B8B9C8BAD8BBE8B8B899C89AD890F
:1018E000BE898F8B988FA98FBA8F8B819C81AD8198
:1018F000BE812F89388D498D5A8DBC01CD010E9442
:10190000D80F2B8F3C8F4D8F5E8F8F819885A98547
:10191000BA852F89388D498D5A8DBC01CD010E9421
:10192000D80F2F8F38A349A35AA38B859C85AD85EB
:10193000BE852F89388D498D5A8DBC01CD010E94FD
:10194000D80F2BA33CA34DA35EA38F859889A989AB
:10195000BA892F89388D498D5A8DBC01CD010E94DD
:10196000D80F2FA338A749A75AA7CE018D962BE6EB
:1019700030E048E0F90100802F5F3F4FFC0100821A
:10198000019641504423B1F784E090E09CA78BA7D7
:101990008FEF80937D008B8D9C8DAD8DBE8D809360
:1019A0007E0090937F00A0938000B09381008B8D88
:1019B0009C8DAD8DBE8D8093820090938300A0930B
:1019C0008400B093850083E797E09093870080932D
:1019D00086008FEF809388008F8D98A1A9A1BAA16E
:1019E0008093890090938A00A0938B00B0938C0021
:1019F0008F8D98A1A9A1BAA180938D0090938E009C
:101A0000A0938F00B093900088EA97E090939200A3
:101A1000809391008FEF809393008BA19CA1ADA147
:101A2000BEA18093940090939500A0939600B093EC
:101A300097008BA19CA1ADA1BEA18093980090932B
:101A40009900A0939A00B0939B0086E09BE090934E
:101A50009D0080939C008FEF80939E008FA198A59E
:101A6000A9A5BAA580939F009093A000A093A10080
:101A7000B093A2008FA198A5A9A5BAA58093A300B1
:101A80009093A400A093A500B093A60083E49BE0EC
:101A90009093A8008093A7008F89988DA98DBA8D07
:101AA000BC01CD010E9493000E94C000809166009D
:101AB00090916700A0916800B09169000196A11D06
:101AC000B11D8093660090936700A0936800B09367
:101AD00069008091790090917A00A0917B00B0918B
:101AE0007C000196A11DB11D8093790090937A002E
:101AF000A0937B00B0937C0081E00E94B801D8C025
:101B00001A821982C6C08091660090916700A091E8
:101B10006800B09169000196A11DB11D8093660017
:101B200090936700A0936800B0936900809179005A
:101B300090917A00A0917B00B0917C000196A11D4C
:101B4000B11D8093790090937A00A0937B00B093AD
:101B50007C0089819A81880F991F9E012F5F3F4FDA
:101B6000820F931F8C96FC0180819181FC0125815D
:101B700036814781508589819A81880F991FBE01DE
:101B80006F5F7F4F860F971F8C96FC01808191813C
:101B9000FC0181819281A381B481281739074A070A
:101BA0005B0708F445C089819A81880F991F9E01BF
:101BB0002F5F3F4F820F931F8C96FC010081118194
:101BC00089819A81880F991F9E012F5F3F4F820F55
:101BD000931F8C96FC0180819181FC0121853285C7
:101BE00089819A81880F991FAE014F5F5F4F840FE3
:101BF000951F8C96FC0180819181FC018081992741
:101C000087FD9095F9010995F801808389819A8172
:101C1000880F991F9E012F5F3F4F820F931F8C9655
:101C2000FC0180819181FC01158216821782108649
:101C300089819A81880F991F9E012F5F3F4F820FE4
:101C4000931F8C96FC016081718189819A81880F34
:101C5000991F9E012F5F3F4F820F931F8C96FC01AF
:101C600080819181FC0125813681478150858F8952
:101C7000988DA98DBA8D820F931FA41FB51FFB01EC
:101C800085839683A783B08789819A8101969A83F9
:101C9000898329813A818BA59CA52817390708F4E7
:101CA00032CF0000809174008823E1F31092740019
:101CB00089E390E0FC01808163E00E947900882341
:101CC00009F01ECFF3CE9CD008F481E008950CD02B
:101CD000D2C0CAD040F0C1D030F021F45F3F19F03B
:101CE000B3C05111FCC0B6C0D7D098F39923C9F343
:101CF0005523B1F3951B550BBB27AA276217730712
:101D0000840738F09F5F5F4F220F331F441FAA1FC5
:101D1000A9F333D00E2E3AF0E0E830D09150504085
:101D2000E695001CCAF729D0FE2F27D0660F771F33
:101D3000881FBB1F261737074807AB07B0E809F015
:101D4000BB0B802DBF01FF2793585F4F2AF09E3FAA
:101D5000510568F079C0C3C05F3FECF3983EDCF3F7
:101D6000869577956795B795F7959F5FC9F7880F23
:101D7000911D9695879597F90895E1E0660F771F75
:101D8000881FBB1F621773078407BA0720F0621B06
:101D9000730B840BBA0BEE1F88F7E095089504D0FF
:101DA0006894B1119CC008957FD088F09F5790F03F
:101DB000B92F9927B751A0F0D1F0660F771F881F70
:101DC000991F1AF0BA95C9F712C0B13081F086D0C8
:101DD000B1E0089583C0672F782F8827B85F39F066
:101DE000B93FCCF3869577956795B395D9F73EF4CF
:101DF00090958095709561957F4F8F4F9F4F089577
:101E0000990F0008550FAA0BE0E8FEEF161617060B
:101E1000E807F907C0F012161306E407F50798F073
:101E2000621B730B840B950B39F40A2661F0232B8C
:101E3000242B252B21F408950A2609F4A140A69508
:101E40008FEF811D811D089597F99F6780E870E0ED
:101E500060E008959FEF80EC089500240A94161620
:101E6000170618060906089500240A941216130688
:101E7000140605060895092E0394000C11F4882316
:101E800052F0BB0F40F4BF2B11F460FF04C06F5F32
:101E90007F4F8F4F9F4F089557FD9058440F551F08
:101EA00059F05F3F71F04795880F97FB991F61F0DC
:101EB0009F3F79F087950895121613061406551F53
:101EC000F2CF4695F1DF08C0161617061806991FBF
:101ED000F1CF86957105610508940895E894BB27B4
:101EE00066277727CB0197F908950BD0C4CFB5DFCC
:101EF00028F0BADF18F0952309F0A6CFABCF112454
:101F0000EECFCADFA0F3959FD1F3950F50E0551F98
:101F1000629FF001729FBB27F00DB11D639FAA273E
:101F2000F00DB11DAA1F649F6627B00DA11D661F8D
:101F3000829F2227B00DA11D621F739FB00DA11DAE
:101F4000621F839FA00D611D221F749F3327A00D68
:101F5000611D231F849F600D211D822F762F6A2F04
:101F600011249F5750408AF0E1F088234AF0EE0F89
:101F7000FF1FBB1F661F771F881F91505040A9F796
:101F80009E3F510570F060CFAACF5F3FECF3983EC3
:101F9000DCF3869577956795B795F795E7959F5FFD
:101FA000C1F7FE2B880F911D9695879597F9089597
:101FB000A1E21A2EAA1BBB1BFD010DC0AA1FBB1F4D
:101FC000EE1FFF1FA217B307E407F50720F0A21BBF
:101FD000B30BE40BF50B661F771F881F991F1A942C
:101FE00069F760957095809590959B01AC01BD0156
:081FF000CF010895F894FFCF22
:101FF800010000000101FF000000097D0088009336
:04200800009E000036
:00000001FF
